:100000000C9463000C948B000C948B000C948B006C
:100010000C948B000C948B000C948B000C948B0034
:100020000C948B000C948B000C948B000C948B0024
:100030000C948B000C948B000C948B000C948B0014
:100040000C9487020C948B000C948B000C948B0006
:100050000C948B000C948B000C948B000C948B00F4
:100060000C948B000C948B000000000024002700EF
:100070002A0000000000250028002B0000000000DE
:1000800023002600290004040404040404040202DA
:100090000202020203030303030301020408102007
:1000A0004080010204081020010204081020000012
:1000B0000007000201000003040600000000000029
:1000C000000031022A0211241FBECFEFD8E0DEBFAC
:1000D000CDBF11E0A0E0B1E0E4E6F8E002C0059099
:1000E0000D92AE30B107D9F711E0AEE0B1E001C03A
:1000F0001D92A432B107E1F710E0C4ECD0E004C0D7
:100100002297FE010E942104C23CD107C9F70E9438
:1001100075020C9425040C940000CF93DF93BC016E
:100120008230910510F462E070E0A0912201B0915C
:100130002301ED01E0E0F0E040E050E021C08881E3
:1001400099818617970769F48A819B81309719F006
:100150009383828304C09093230180932201FE0144
:1001600034C06817790738F44115510519F0841720
:10017000950708F4AC01FE018A819B819C01E9018D
:100180002097E9F641155105A9F1CA01861B970B85
:10019000049708F4BA01E0E0F0E02AC08D919C9148
:1001A000119784179507F9F46417750781F412966F
:1001B0008D919C911397309719F09383828304C09B
:1001C0009093230180932201FD0132964CC0CA0115
:1001D000861B970BFD01E80FF91F6193719302973E
:1001E0008D939C9340C0FD01828193819C01D90134
:1001F0001097A1F68091200190912101892B41F463
:10020000809102019091030190932101809320013C
:1002100040910401509105014115510541F44DB73C
:100220005EB78091000190910101481B590B20910C
:10023000200130912101CA01821B930B8617970779
:1002400080F0AB014E5F5F4F8417950750F0420F6F
:10025000531F5093210140932001F9016193719341
:1002600002C0E0E0F0E0CF01DF91CF910895CF939D
:10027000DF93009709F450C0EC0122971B821A8289
:10028000A0912201B0912301109709F140E050E0C4
:10029000AC17BD0708F1BB83AA83FE012191319100
:1002A000E20FF31FAE17BF0779F48D919C91119760
:1002B000280F391F2E5F3F4F3983288312968D9167
:1002C0009C9113979B838A834115510571F4D093B8
:1002D0002301C093220120C012968D919C91139707
:1002E000AD01009711F0DC01D3CFFA01D383C283B3
:1002F00021913191E20FF31FCE17DF0769F4888156
:100300009981280F391F2E5F3F4FFA0131832083D7
:100310008A819B8193838283DF91CF910895FC0131
:100320008AE091E091838083828193810E943701EA
:1003300008950F931F938C018AE091E0F801918357
:100340008083828193810E943701C8010E948402C8
:100350001F910F910895FF920F931F938C01262FE9
:10036000F42EFC018581678141E00E94DD03F801E4
:100370008581678141E02F2D0E94DD03F801868190
:1003800060E00E948903F801868161E00E94890390
:100390001F910F91FF900895BF92CF92DF92EF923D
:1003A000FF920F931F936C01162FF42EB22E8E2DF9
:1003B0002AE031E0F60131832083E48290E0880F67
:1003C000991F0E948D00F601828393831583F68224
:1003D000B7820087812F61E00E946303F601868166
:1003E00061E00E946303F601878161E00E9463037C
:1003F000F601808561E00E946303F601808560E07C
:100400000E9489031F910F91FF90EF90DF90CF9092
:10041000BF9008950895EF920F938130910571F484
:100420006F5F7F4FA1F48EE091E06BE04CE02DE038
:100430000AE0EE24E3940E94CC0109C0892B39F430
:100440006F5F7F4F21F48EE091E00E948F010F914A
:10045000EF90089580E090E06FEF7FEF0E940B0235
:10046000089581E090E06FEF7FEF0E940B02089506
:100470000F931F93CF93DF93C0E0D0E001E010E033
:10048000A8010C2E02C0440F551F0A94E2F78EE01B
:1004900091E060E40E94AB0164EF71E080E090E0E5
:1004A0000E94CF022196C830D10551F7C0E0D0E0BC
:1004B00001E010E0B8010C2E02C0660F771F0A940D
:1004C000E2F78EE091E040E00E94AB0164EF71E062
:1004D00080E090E00E94CF022196C830D10551F70C
:1004E000DF91CF911F910F910895CF93DF930E94D9
:1004F00028030E940A02C0E0D0E00E943802209740
:10050000E1F30E940000F9CF0E94370108951F9285
:100510000F920FB60F9211242F933F938F939F93B7
:10052000AF93BF9380911B0190911C01A0911D017D
:10053000B0911E0130911F010196A11DB11D232F05
:100540002D5F2D3720F02D570196A11DB11D209351
:100550001F0180931B0190931C01A0931D01B09378
:100560001E018091170190911801A0911901B0917D
:100570001A010196A11DB11D8093170190931801D6
:10058000A0931901B0931A01BF91AF919F918F91E0
:100590003F912F910F900FBE0F901F9018959B01C8
:1005A000AC017FB7F8948091170190911801A09148
:1005B0001901B0911A0166B5A89B05C06F3F19F0EB
:1005C0000196A11DB11D7FBFBA2FA92F982F882793
:1005D000860F911DA11DB11D62E0880F991FAA1FF2
:1005E000BB1F6A95D1F7BC012DC0FFB7F89480916D
:1005F000170190911801A0911901B0911A01E6B567
:10060000A89B05C0EF3F19F00196A11DB11DFFBFCA
:10061000BA2FA92F982F88278E0F911DA11DB11DCC
:10062000E2E0880F991FAA1FBB1FEA95D1F7861B2E
:10063000970B885E9340C8F22150304040405040B4
:1006400068517C4F211531054105510571F608951A
:10065000789484B5826084BD84B5816084BD85B59D
:10066000826085BD85B5816085BDEEE6F0E0808164
:1006700081608083E1E8F0E0108280818260808385
:10068000808181608083E0E8F0E080818160808308
:10069000E1EBF0E0808184608083E0EBF0E080813A
:1006A00081608083EAE7F0E08081846080838081DC
:1006B0008260808380818160808380818068808384
:1006C0001092C1000895482F50E0CA0186569F4FEE
:1006D000FC0124914A575F4FFA0184918823C1F0AD
:1006E000E82FF0E0EE0FFF1FE859FF4FA591B491FE
:1006F000662341F49FB7F8948C91209582238C93C4
:100700009FBF08959FB7F8948C91822B8C939FBFC5
:100710000895482F50E0CA0182559F4FFC01249153
:10072000CA0186569F4FFC0194914A575F4FFA01C8
:100730003491332309F440C0222351F1233071F066
:10074000243028F42130A1F0223011F514C02630D5
:10075000B1F02730C1F02430D9F404C0809180007A
:100760008F7703C0809180008F7D8093800010C0C0
:1007700084B58F7702C084B58F7D84BD09C0809118
:10078000B0008F7703C08091B0008F7D8093B00060
:10079000E32FF0E0EE0FFF1FEE58FF4FA591B4914D
:1007A0002FB7F894662321F48C919095892302C089
:1007B0008C91892B8C932FBF0895BF92CF92DF929B
:1007C000EF92FF920F931F93CF93DF93E82EF62EB5
:1007D000B42EC7E0D0E0022F10E087E0C82ED12C65
:1007E000BB2059F4B6016C1B7D0BC80102C0959566
:1007F00087956A95E2F7BC0107C0B8010C2E02C0CC
:10080000759567950A94E2F761708E2D0E948903B1
:100810008F2D61E00E9489038F2D60E00E94890383
:1008200021979FEFCF3FD907D9F6DF91CF911F9145
:100830000F91FF90EF90DF90CF90BF900895EE0F53
:10084000FF1F0590F491E02D099410E0C4ECD0E076
:1008500004C0FE010E9421042296C63CD107C9F7BC
:04086000F894FFCF3A
:0E086400200024010000000000008F01990117
:00000001FF
