:100000000C9463000C948B000C948B000C948B006C
:100010000C948B000C948B000C948B000C948B0034
:100020000C948B000C948B000C948B000C948B0024
:100030000C948B000C948B000C948B000C948B0014
:100040000C9436030C948B000C948B000C948B0056
:100050000C948B000C948B000C948B000C948B00F4
:100060000C948B000C948B000000000024002700EF
:100070002A0000000000250028002B0000000000DE
:1000800023002600290004040404040404040202DA
:100090000202020203030303030301020408102007
:1000A0004080010204081020010204081020000012
:1000B0000007000201000003040600000000000029
:1000C0000000F202EB0211241FBECFEFD8E0DEBF2A
:1000D000CDBF11E0A0E0B1E0EAE8FAE002C005908F
:1000E0000D92AE30B107D9F711E0AEE0B1E001C03A
:1000F0001D92A632B107E1F710E0C4ECD0E004C0D5
:100100002297FE010E943405C23CD107C9F70E9424
:1001100024030C9438050C940000CF93DF93BC01AA
:100120008230910510F462E070E0A0912401B0915A
:100130002501ED01E0E0F0E040E050E021C08881E1
:1001400099818617970769F48A819B81309719F006
:100150009383828304C09093250180932401FE0140
:1001600034C06817790738F44115510519F0841720
:10017000950708F4AC01FE018A819B819C01E9018D
:100180002097E9F641155105A9F1CA01861B970B85
:10019000049708F4BA01E0E0F0E02AC08D919C9148
:1001A000119784179507F9F46417750781F412966F
:1001B0008D919C911397309719F09383828304C09B
:1001C0009093250180932401FD0132964CC0CA0111
:1001D000861B970BFD01E80FF91F6193719302973E
:1001E0008D939C9340C0FD01828193819C01D90134
:1001F0001097A1F68091220190912301892B41F45F
:100200008091020190910301909323018093220138
:1002100040910401509105014115510541F44DB73C
:100220005EB78091000190910101481B590B20910C
:10023000220130912301CA01821B930B8617970775
:1002400080F0AB014E5F5F4F8417950750F0420F6F
:10025000531F5093230140932201F901619371933D
:1002600002C0E0E0F0E0CF01DF91CF910895CF939D
:10027000DF93009709F450C0EC0122971B821A8289
:10028000A0912401B0912501109709F140E050E0C0
:10029000AC17BD0708F1BB83AA83FE012191319100
:1002A000E20FF31FAE17BF0779F48D919C91119760
:1002B000280F391F2E5F3F4F3983288312968D9167
:1002C0009C9113979B838A834115510571F4D093B8
:1002D0002501C093240120C012968D919C91139703
:1002E000AD01009711F0DC01D3CFFA01D383C283B3
:1002F00021913191E20FF31FCE17DF0769F4888156
:100300009981280F391F2E5F3F4FFA0131832083D7
:100310008A819B8193838283DF91CF910895FC0131
:10032000862F648190E070E00E94CE0490E0880FF8
:10033000991F0280F381E02DE80FF91F20813181A0
:100340003F78942F9295907F80E0282B392B318332
:1003500020830895EF92FF921F93CF93DF93EC01D8
:100360007B0110E006C0CE01612FA7010E948F0122
:100370001F5F8C811817B8F3DF91CF911F91FF9009
:10038000EF900895CF93DF9370E0660F771FFC0125
:10039000C281D381C60FD71FE881F981E070FC7F4D
:1003A000F983E8834F3F91F0842F90E009966AE04B
:1003B00070E00E94E20421E030E002C0220F331F0F
:1003C0008A95E2F7E22BF32BF983E883DF91CF9153
:1003D0000895CF92DF92EF92FF920F931F93CF93E6
:1003E000DF93EC017A018B01C22EDD2426C0C80107
:1003F000B7012AE030E040E050E00E94F504462FCB
:10040000CE016D2D0E94C201E114F1040105110518
:1004100039F4DC1428F0CE016D2D4FEF0E94C2019B
:10042000C801B7012AE030E040E050E00E94F50446
:10043000C901DA017C018D01D3948C81D816B8F200
:10044000DF91CF911F910F91FF90EF90DF90CF90B0
:100450000895FC018AE091E09183808382819381F9
:100460000E94370108950F931F938C018AE091E059
:10047000F80191838083828193810E943701C801B2
:100480000E9433031F910F910895CF92DF92FF9244
:100490000F931F93CF93DF93EC01FC80B1E0CB2E41
:1004A000D12C1DC086010F191109000F111F1095C5
:1004B00001951F4FEA81FB81E00FF11F21818D81A2
:1004C0006F8141E00E948C04EA81FB81E00FF11F03
:1004D0008D816F8141E020810E948C04FA94FF207D
:1004E00009F78E8160E00E9438048E8161E00E94ED
:1004F0003804DF91CF911F910F91FF90DF90CF9043
:100500000895DF92EF92FF920F931F93CF93DF93A3
:10051000EC01162FF42ED22E8E2D2AE031E03983F5
:100520002883EC8290E0880F991F0E948D008A83B7
:100530009B831D83FE82DF820887812F61E00E94FA
:1005400012048E8161E00E9412048F8161E00E949A
:100550001204888561E00E941204888560E00E9490
:10056000380420E041E050E00BC0822F90E0880F7B
:10057000991FEA81FB81E80FF91F518340832F5FA8
:100580008C81281790F3DF91CF911F910F91FF90ED
:10059000EF90DF9008950895EF920F9381309105C9
:1005A00071F46F5F7F4FA1F48EE091E06BE04CE05F
:1005B0002DE00AE035E0E32E0E94810209C0892B7C
:1005C00039F46F5F7F4F21F48EE091E00E942902A1
:1005D0000F91EF90089580E090E06FEF7FEF0E9421
:1005E000CC02089581E090E06FEF7FEF0E94CC0293
:1005F00008950F931F930EE011E060911701709121
:10060000180167707070C8010E94AA01409117011B
:10061000509118014F5F5F4F50931801409317019D
:100620004150504060E070E0C80121E00E94E901C3
:10063000C8010E94450268EE73E080E090E00E94ED
:100640007E031F910F910895CF93DF930E94D703EC
:100650000E94CB02C0E0D0E00E94F9022097E1F3B3
:100660000E940000F9CF0E94370108951F920F9257
:100670000FB60F9211242F933F938F939F93AF93B5
:10068000BF9380911D0190911E01A0911F01B09117
:100690002001309121010196A11DB11D232F2D5F55
:1006A0002D3720F02D570196A11DB11D209321015A
:1006B00080931D0190931E01A0931F01B093200110
:1006C0008091190190911A01A0911B01B0911C0118
:1006D0000196A11DB11D8093190190931A01A09359
:1006E0001B01B0931C01BF91AF919F918F913F91DE
:1006F0002F910F900FBE0F901F9018959B01AC018A
:100700007FB7F8948091190190911A01A0911B0173
:10071000B0911C0166B5A89B05C06F3F19F001960A
:10072000A11DB11D7FBFBA2FA92F982F8827860F33
:10073000911DA11DB11D62E0880F991FAA1FBB1F4B
:100740006A95D1F7BC012DC0FFB7F89480911901CB
:1007500090911A01A0911B01B0911C01E6B5A89BD4
:1007600005C0EF3F19F00196A11DB11DFFBFBA2FC3
:10077000A92F982F88278E0F911DA11DB11DE2E092
:10078000880F991FAA1FBB1FEA95D1F7861B970BED
:10079000885E9340C8F2215030404040504068513C
:1007A0007C4F211531054105510571F60895789466
:1007B00084B5826084BD84B5816084BD85B5826066
:1007C00085BD85B5816085BDEEE6F0E08081816004
:1007D0008083E1E8F0E01082808182608083808104
:1007E00081608083E0E8F0E0808181608083E1EBDC
:1007F000F0E0808184608083E0EBF0E080818160C4
:100800008083EAE7F0E08081846080838081826079
:100810008083808181608083808180688083109262
:10082000C1000895482F50E0CA0186569F4FFC0131
:1008300024914A575F4FFA0184918823C1F0E82F31
:10084000F0E0EE0FFF1FE859FF4FA591B49166232A
:1008500041F49FB7F8948C91209582238C939FBF8D
:1008600008959FB7F8948C91822B8C939FBF089525
:10087000482F50E0CA0182559F4FFC012491CA01C4
:1008800086569F4FFC0194914A575F4FFA0134916D
:10089000332309F440C0222351F1233071F0243076
:1008A00028F42130A1F0223011F514C02630B1F027
:1008B0002730C1F02430D9F404C0809180008F77B4
:1008C00003C0809180008F7D8093800010C084B52C
:1008D0008F7702C084B58F7D84BD09C08091B00040
:1008E0008F7703C08091B0008F7D8093B000E32F9D
:1008F000F0E0EE0FFF1FEE58FF4FA591B4912FB718
:10090000F894662321F48C919095892302C08C91F0
:10091000892B8C932FBF0895BF92CF92DF92EF92D5
:10092000FF920F931F93CF93DF93E82EF62EB42EF2
:10093000C7E0D0E0022F10E087E0C82ED12CBB200A
:1009400059F4B6016C1B7D0BC80102C095958795C3
:100950006A95E2F7BC0107C0B8010C2E02C075957C
:1009600067950A94E2F761708E2D0E9438048F2DEE
:1009700061E00E9438048F2D60E00E9438042197C6
:100980009FEFCF3FD907D9F6DF91CF911F910F91FC
:10099000FF90EF90DF90CF90BF900895AA1BBB1BF4
:1009A00051E107C0AA1FBB1FA617B70710F0A61B6F
:1009B000B70B881F991F5A95A9F780959095BC0190
:1009C000CD01089597FB092E07260AD077FD04D0A4
:1009D000E5DF06D000201AF4709561957F4F0895E9
:1009E000F6F7909581959F4F089597FB092E052660
:1009F0000ED057FD04D014D00AD0001C38F4509506
:100A00004095309521953F4F4F4F5F4F0895F6F732
:100A100090958095709561957F4F8F4F9F4F08956A
:100A2000A1E21A2EAA1BBB1BFD010DC0AA1FBB1FF2
:100A3000EE1FFF1FA217B307E407F50720F0A21B64
:100A4000B30BE40BF50B661F771F881F991F1A94D1
:100A500069F760957095809590959B01AC01BD01FB
:100A6000CF010895EE0FFF1F0590F491E02D09943A
:100A700010E0C4ECD0E004C0FE010E9434052296D0
:0A0A8000C63CD107C9F7F894FFCF78
:0E0A8A002000260100000000000029023302B7
:00000001FF
