:100000000C9463000C948B000C948B000C948B006C
:100010000C948B000C948B000C948B000C948B0034
:100020000C948B000C948B000C948B000C948B0024
:100030000C948B000C948B000C948B000C948B0014
:100040000C9455030C948B000C948B000C948B0037
:100050000C948B000C948B000C948B000C948B00F4
:100060000C948B000C948B000000000024002700EF
:100070002A0000000000250028002B0000000000DE
:1000800023002600290004040404040404040202DA
:100090000202020203030303030301020408102007
:1000A0004080010204081020010204081020000012
:1000B0000007000201000003040600000000000029
:1000C00000000703000311241FBECFEFD8E0DEBFFE
:1000D000CDBF11E0A0E0B1E0EAE8FAE002C005908F
:1000E0000D92AE30B107D9F711E0AEE0B1E001C03A
:1000F0001D92A432B107E1F710E0C4ECD0E004C0D7
:100100002297FE010E943405C23CD107C9F70E9424
:1001100043030C9438050C940000CF93DF93BC018B
:100120008230910510F462E070E0A0912201B0915C
:100130002301ED01E0E0F0E040E050E021C08881E3
:1001400099818617970769F48A819B81309719F006
:100150009383828304C09093230180932201FE0144
:1001600034C06817790738F44115510519F0841720
:10017000950708F4AC01FE018A819B819C01E9018D
:100180002097E9F641155105A9F1CA01861B970B85
:10019000049708F4BA01E0E0F0E02AC08D919C9148
:1001A000119784179507F9F46417750781F412966F
:1001B0008D919C911397309719F09383828304C09B
:1001C0009093230180932201FD0132964CC0CA0115
:1001D000861B970BFD01E80FF91F6193719302973E
:1001E0008D939C9340C0FD01828193819C01D90134
:1001F0001097A1F68091200190912101892B41F463
:10020000809102019091030190932101809320013C
:1002100040910401509105014115510541F44DB73C
:100220005EB78091000190910101481B590B20910C
:10023000200130912101CA01821B930B8617970779
:1002400080F0AB014E5F5F4F8417950750F0420F6F
:10025000531F5093210140932001F9016193719341
:1002600002C0E0E0F0E0CF01DF91CF910895CF939D
:10027000DF93009709F450C0EC0122971B821A8289
:10028000A0912201B0912301109709F140E050E0C4
:10029000AC17BD0708F1BB83AA83FE012191319100
:1002A000E20FF31FAE17BF0779F48D919C91119760
:1002B000280F391F2E5F3F4F3983288312968D9167
:1002C0009C9113979B838A834115510571F4D093B8
:1002D0002301C093220120C012968D919C91139707
:1002E000AD01009711F0DC01D3CFFA01D383C283B3
:1002F00021913191E20FF31FCE17DF0769F4888156
:100300009981280F391F2E5F3F4FFA0131832083D7
:100310008A819B8193838283DF91CF9108950F938C
:100320001F93CF93DF93EC018B0120E00FC0822F4E
:1003300090E070E00E940B0590E0880F991FEA8121
:10034000FB81E80FF91F118300832F5F6C81261753
:1003500070F3DF91CF911F910F910895FC01862FCB
:10036000648190E070E00E940B0590E0880F991F77
:100370000280F381E02DE80FF91F208131813F7861
:10038000942F9295907F80E0282B392B3183208306
:100390000895CF93DF9370E0660F771FFC01C28151
:1003A000D381C60FD71FE881F981E070FC7FF98304
:1003B000E8834F3F91F0842F90E009966AE070E067
:1003C0000E941F0521E030E002C0220F331F8A95F2
:1003D000E2F7E22BF32BF983E883DF91CF910895C5
:1003E00070E0660F771FDC011296ED91FC91139778
:1003F000E60FF71F20813181337F942F990F990FDA
:1004000080E0282B392B318320830895FC018AE07A
:1004100091E091838083828193810E9437010895C6
:100420000F931F938C018AE091E0F8019183808300
:10043000828193810E943701C8010E9452031F915B
:100440000F910895EF92FF920F931F93CF93DF9335
:100450008C01C7E0D0E0E62EFF24B7010C2E02C0CD
:10046000759567950A94E2F76170F80185810E949D
:10047000B704F801878160E00E94B704F801878122
:1004800061E00E94B7042197FFEFCF3FDF0729F714
:10049000DF91CF911F910F91FF90EF900895CF9230
:1004A000DF92FF920F931F93CF93DF93EC01FC80B9
:1004B00071E0C72ED12C19C086010F191109000F48
:1004C000111F109501951F4FEA81FB81E00FF11F6D
:1004D0006181CE010E942202EA81FB81E00FF11FBF
:1004E000CE0160810E942202FA94FF2029F78E81BA
:1004F00060E00E94B7048E8161E00E94B704DF9142
:10050000CF911F910F91FF90DF90CF900895262FEC
:10051000FC018085E82FF0E0E255FF4FE491EE23E7
:1005200039F460E0222309F461E00E94B7040895E1
:100530006FEF70E0621B71090E9431040895BF9251
:10054000CF92DF92EF92FF920F931F936C01162FC1
:10055000F42EB22E8E2D2AE031E0F6013183208375
:10056000E48290E0880F991F0E948D00F60182833B
:1005700093831583F682B7820087812F61E00E9402
:100580009104F601868161E00E949104F601878161
:1005900061E00E949104F601808561E00E9491046F
:1005A000C60160E40E948702C60160E070E70E9415
:1005B0008F011F910F91FF90EF90DF90CF90BF9030
:1005C0000895EF920F938130910571F46F5F7F4F23
:1005D000A1F48EE091E06BE04CE02DE00AE03AE01F
:1005E000E32E0E949F0209C0892B39F46F5F7F4F71
:1005F00021F48EE091E00E9406020F91EF900895A1
:1006000080E090E06FEF7FEF0E94E102089581E0CB
:1006100090E06FEF7FEF0E94E102089568EE73E0D3
:1006200080E090E00E949D038EE091E00E944F02E6
:100630000895CF93DF938EE091E060EF0E948702F0
:10064000C0E0D0E0AE01477050708EE091E06C2FBA
:100650000E94AE01AE01437050708EE091E06C2FAD
:100660000E94F0018EE091E06C2F4C2F0E94C90196
:100670002196CA30D10531F78EE091E00E944F02F9
:10068000DF91CF910895CF93DF930E94F6030E94EC
:100690001903C0E0D0E00E940E032097E1F30E940E
:1006A0000000F9CF0E94370108951F920F920FB6F4
:1006B0000F9211242F933F938F939F93AF93BF93E8
:1006C00080911B0190911C01A0911D01B0911E0110
:1006D00030911F010196A11DB11D232F2D5F2D37D4
:1006E00020F02D570196A11DB11D20931F0180936D
:1006F0001B0190931C01A0931D01B0931E018091DA
:10070000170190911801A0911901B0911A01019659
:10071000A11DB11D8093170190931801A093190199
:10072000B0931A01BF91AF919F918F913F912F91FB
:100730000F900FBE0F901F9018959B01AC017FB7D3
:10074000F8948091170190911801A0911901B0912E
:100750001A0166B5A89B05C06F3F19F00196A11D4F
:10076000B11D7FBFBA2FA92F982F8827860F911D03
:10077000A11DB11D62E0880F991FAA1FBB1F6A95BA
:10078000D1F7BC012DC0FFB7F8948091170190916B
:100790001801A0911901B0911A01E6B5A89B05C0F6
:1007A000EF3F19F00196A11DB11DFFBFBA2FA92F70
:1007B000982F88278E0F911DA11DB11DE2E0880F93
:1007C000991FAA1FBB1FEA95D1F7861B970B885E5E
:1007D0009340C8F2215030404040504068517C4F17
:1007E000211531054105510571F60895789484B5B8
:1007F000826084BD84B5816084BD85B5826085BD1D
:1008000085B5816085BDEEE6F0E080818160808302
:10081000E1E8F0E0108280818260808380818160E5
:100820008083E0E8F0E0808181608083E1EBF0E0AC
:10083000808184608083E0EBF0E080818160808350
:10084000EAE7F0E080818460808380818260808339
:100850008081816080838081806880831092C10064
:1008600008951F93CF93DF93182FEB0161E00E944F
:100870009104209709F44AC0CF3FD10509F449C03B
:10088000E12FF0E0E255FF4F84918330C1F08430D6
:1008900028F4813051F08230B1F50CC0863019F166
:1008A000873049F1843079F514C084B5806884BDFF
:1008B000C7BD33C084B5806284BDC8BD2EC08091E1
:1008C0008000806880938000D0938900C093880066
:1008D00024C080918000806280938000D0938B0040
:1008E000C0938A001AC08091B00080688093B000E5
:1008F000C093B30012C08091B00080628093B000BA
:10090000C093B4000AC0C038D1051CF4812F60E048
:1009100002C0812F61E00E94B704DF91CF911F9147
:100920000895482F50E0CA0186569F4FFC0124913C
:100930004A575F4FFA0184918823C1F0E82FF0E015
:10094000EE0FFF1FE859FF4FA591B491662341F4C4
:100950009FB7F8948C91209582238C939FBF089524
:100960009FB7F8948C91822B8C939FBF0895482F4A
:1009700050E0CA0182559F4FFC012491CA0186565E
:100980009F4FFC0194914A575F4FFA0134913323F2
:1009900009F440C0222351F1233071F0243028F4AF
:1009A0002130A1F0223011F514C02630B1F02730EB
:1009B000C1F02430D9F404C0809180008F7703C047
:1009C000809180008F7D8093800010C084B58F77E8
:1009D00002C084B58F7D84BD09C08091B0008F773F
:1009E00003C08091B0008F7D8093B000E32FF0E0D2
:1009F000EE0FFF1FEE58FF4FA591B4912FB7F8945B
:100A0000662321F48C919095892302C08C91892BC7
:100A10008C932FBF0895AA1BBB1B51E107C0AA1FCF
:100A2000BB1FA617B70710F0A61BB70B881F991F8F
:100A30005A95A9F780959095BC01CD01089597FB33
:100A4000092E07260AD077FD04D0E5DF06D0002066
:100A50001AF4709561957F4F0895F6F790958195FA
:100A60009F4F0895EE0FFF1F0590F491E02D09941C
:100A700010E0C4ECD0E004C0FE010E9434052296D0
:0A0A8000C63CD107C9F7F894FFCF78
:0E0A8A002000240100000000000006021002FF
:00000001FF
