:100000000C9463000C948B000C948B000C948B006C
:100010000C948B000C948B000C948B000C948B0034
:100020000C948B000C948B000C948B000C948B0024
:100030000C948B000C948B000C948B000C948B0014
:100040000C9414040C948B000C948B000C948B0077
:100050000C948B000C948B000C948B000C948B00F4
:100060000C948B000C948B000000000024002700EF
:100070002A0000000000250028002B0000000000DE
:1000800023002600290004040404040404040202DA
:100090000202020203030303030301020408102007
:1000A0004080010204081020010204081020000012
:1000B0000007000201000003040600000000000029
:1000C00000006903620311241FBECFEFD8E0DEBF3A
:1000D000CDBF11E0A0E0B1E0E2EFFCE002C005908E
:1000E0000D92A231B107D9F711E0A2E1B1E001C050
:1000F0001D92A832B107E1F710E0C4ECD0E004C0D3
:100100002297FE010E943106C23CD107C9F70E9426
:1001100002040C946C060C940000CF93DF93BC0196
:100120008230910510F462E070E0A0912601B09158
:100130002701ED01E0E0F0E040E050E021C08881DF
:1001400099818617970769F48A819B81309719F006
:100150009383828304C09093270180932601FE013C
:1001600034C06817790738F44115510519F0841720
:10017000950708F4AC01FE018A819B819C01E9018D
:100180002097E9F641155105A9F1CA01861B970B85
:10019000049708F4BA01E0E0F0E02AC08D919C9148
:1001A000119784179507F9F46417750781F412966F
:1001B0008D919C911397309719F09383828304C09B
:1001C0009093270180932601FD0132964CC0CA010D
:1001D000861B970BFD01E80FF91F6193719302973E
:1001E0008D939C9340C0FD01828193819C01D90134
:1001F0001097A1F68091240190912501892B41F45B
:100200008091020190910301909325018093240134
:1002100040910401509105014115510541F44DB73C
:100220005EB78091000190910101481B590B20910C
:10023000240130912501CA01821B930B8617970771
:1002400080F0AB014E5F5F4F8417950750F0420F6F
:10025000531F5093250140932401F9016193719339
:1002600002C0E0E0F0E0CF01DF91CF910895CF939D
:10027000DF93009709F450C0EC0122971B821A8289
:10028000A0912601B0912701109709F140E050E0BC
:10029000AC17BD0708F1BB83AA83FE012191319100
:1002A000E20FF31FAE17BF0779F48D919C91119760
:1002B000280F391F2E5F3F4F3983288312968D9167
:1002C0009C9113979B838A834115510571F4D093B8
:1002D0002701C093260120C012968D919C911397FF
:1002E000AD01009711F0DC01D3CFFA01D383C283B3
:1002F00021913191E20FF31FCE17DF0769F4888156
:100300009981280F391F2E5F3F4FFA0131832083D7
:100310008A819B8193838283DF91CF910895A0E0AE
:10032000B0E0E5E9F1E00C943D06EC01A880B9806D
:10033000CA80DB80A114B104C104D10441F484E279
:10034000A82E89EDB82E8BE5C82E87E0D82EC601E1
:10035000B5012DE133EF41E050E00E94F20527EABC
:1003600031E440E050E00E94AC057B018C01C60105
:10037000B5012DE133EF41E050E00E94F205CA01E2
:10038000B9012CEE34EF4FEF5FEF0E94AC056E0D1C
:100390007F1D801F911F97FF04C0615070408040F7
:1003A0009048688379838A839B839B01AC015F7744
:1003B000B901CA01CDB7DEB7EAE00C9459060E9434
:1003C0008F01089586E091E00E948F010895609367
:1003D0000601709307018093080190930901089525
:1003E000FC01862F648190E070E00E94CB0590E0D4
:1003F000880F991F0280F381E02DE80FF91F2081FB
:1004000031813F78942F9295907F80E0282B392B73
:10041000318320830895EF92FF921F93CF93DF9350
:10042000EC017B0110E006C0CE01612FA7010E9404
:10043000F0011F5F8C811817B8F3DF91CF911F91E6
:10044000FF90EF900895CF93DF9370E0660F771FD2
:10045000FC01C281D381C60FD71FE881F981E0700A
:10046000FC7FF983E8834F3F91F0842F90E0099659
:100470006AE070E00E94DF0521E030E002C0220F58
:10048000331F8A95E2F7E22BF32BF983E883DF91A0
:10049000CF91089570E0660F771FDC011296ED9101
:1004A000FC911397E60FF71F20813181337F942F42
:1004B000990F990F80E0282B392B318320830895E1
:1004C000CF92DF92EF92FF920F931F93CF93DF9320
:1004D000EC017A018B01C22EDD2426C0C801B701D0
:1004E0002AE030E040E050E00E94F205462FCE01C5
:1004F0006D2D0E942302E114F1040105110539F468
:10050000DC1428F0CE016D2D4FEF0E942302C801AC
:10051000B7012AE030E040E050E00E94F205C90156
:10052000DA017C018D01D3948C81D816B8F2DF9169
:10053000CF911F910F91FF90EF90DF90CF90089592
:10054000FC018EE091E091838083828193810E94FF
:10055000370108950F931F938C018EE091E0F8010D
:1005600091838083828193810E943701C8010E9418
:1005700011041F910F910895CF92DF92FF920F9374
:100580001F93CF93DF93EC01FC80B1E0CB2ED12CF5
:100590001DC086010F191109000F111F109501953B
:1005A0001F4FEA81FB81E00FF11F21818D816F8157
:1005B00041E00E946A05EA81FB81E00FF11F8D8115
:1005C0006F8141E020810E946A05FA94FF2009F7BB
:1005D0008E8160E00E9416058E8161E00E94160502
:1005E000DF91CF911F910F91FF90DF90CF900895F1
:1005F000DF92EF92FF920F931F93CF93DF93EC0163
:10060000162FF42ED22E8E2D2EE031E03983288342
:10061000EC8290E0880F991F0E948D008A839B8353
:100620001D83FE82DF820887812F61E00E94F00433
:100630008E8161E00E94F0048F8161E00E94F004ED
:10064000888561E00E94F004888560E00E941605BC
:1006500020E041E050E00BC0822F90E0880F991F0E
:10066000EA81FB81E80FF91F518340832F5F8C8162
:10067000281790F3DF91CF911F910F91FF90EF908A
:10068000DF9008950895EF920F938130910571F4F2
:100690006F5F7F4FA1F482E191E06BE04CE02DE0D1
:1006A0000AE035E0E32E0E94F80209C0892B39F4F4
:1006B0006F5F7F4F21F482E191E00E94A0020F91D1
:1006C000EF90089580E090E06FEF7FEF0E9443038A
:1006D000089581E090E06FEF7FEF0E94430308955B
:1006E000BF92CF92DF92EF92FF920F931F9360E041
:1006F00070E080E090E020EA36E841E050E00E94BF
:10070000E4037B018C0142E1C42E41E0D42E28E0B9
:1007100030E040E050E00E94F2059B01AC01C601D0
:10072000B9010E940B02C801B70125E030E040E0AA
:1007300050E00E94F205B62EC801B70124E030E077
:1007400040E050E00E94F2059B01AC01C6016B2D18
:10075000A9010E944A02C601B801A70125E00E9432
:100760006002C6010E94BC0268EE73E080E090E087
:100770000E945C041F910F91FF90EF90DF90CF904B
:10078000BF900895EF92FF920F931F937B018C010E
:10079000611571058105910529F420E030E040E004
:1007A00050E00BC00E94E201A80197010E94F205EF
:1007B000AC01CB01DA019C01AD01B901CA011F9165
:1007C0000F91FF90EF900895EF92FF920F931F9378
:1007D0007B018C01621773078407950764F4261B5D
:1007E000370B480B590BCA01B9010E94C203E60E30
:1007F000F71E081F191FB701C8011F910F91FF9025
:10080000EF900895CF93DF930E94B5040E944203B6
:10081000C0E0D0E00E9470032097E1F30E94000046
:10082000F9CF0E94370108951F920F920FB60F92D1
:1008300011242F933F938F939F93AF93BF938091F6
:100840001F0190912001A0912101B09122013091CE
:1008500023010196A11DB11D232F2D5F2D3720F0FF
:100860002D570196A11DB11D2093230180931F01D7
:1008700090932001A0932101B093220180911B014C
:1008800090911C01A0911D01B0911E010196A11D26
:10089000B11D80931B0190931C01A0931D01B09387
:1008A0001E01BF91AF919F918F913F912F910F901A
:1008B0000FBE0F901F9018959B01AC017FB7F89465
:1008C00080911B0190911C01A0911D01B0911E010E
:1008D00066B5A89B05C06F3F19F00196A11DB11D1B
:1008E0007FBFBA2FA92F982F8827860F911DA11D92
:1008F000B11D62E0880F991FAA1FBB1F6A95D1F72F
:10090000BC012DC0FFB7F89480911B0190911C0190
:10091000A0911D01B0911E01E6B5A89B05C0EF3F57
:1009200019F00196A11DB11DFFBFBA2FA92F982F55
:1009300088278E0F911DA11DB11DE2E0880F991F20
:10094000AA1FBB1FEA95D1F7861B970B885E9340C1
:10095000C8F2215030404040504068517C4F211532
:1009600031054105510571F60895789484B582608A
:1009700084BD84B5816084BD85B5826085BD85B543
:10098000816085BDEEE6F0E0808181608083E1E8F2
:10099000F0E010828081826080838081816080832A
:1009A000E0E8F0E0808181608083E1EBF0E080812D
:1009B00084608083E0EBF0E0808181608083EAE7FF
:1009C000F0E0808184608083808182608083808188
:1009D000816080838081806880831092C100089547
:1009E000482F50E0CA0186569F4FFC0124914A5778
:1009F0005F4FFA0184918823C1F0E82FF0E0EE0FF9
:100A0000FF1FE859FF4FA591B491662341F49FB7AA
:100A1000F8948C91209582238C939FBF08959FB763
:100A2000F8948C91822B8C939FBF0895482F50E0AF
:100A3000CA0182559F4FFC012491CA0186569F4FDF
:100A4000FC0194914A575F4FFA013491332309F422
:100A500040C0222351F1233071F0243028F421309A
:100A6000A1F0223011F514C02630B1F02730C1F0CA
:100A70002430D9F404C0809180008F7703C0809126
:100A800080008F7D8093800010C084B58F7702C076
:100A900084B58F7D84BD09C08091B0008F7703C07D
:100AA0008091B0008F7D8093B000E32FF0E0EE0FD7
:100AB000FF1FEE58FF4FA591B4912FB7F89466230E
:100AC00021F48C919095892302C08C91892B8C9371
:100AD0002FBF0895BF92CF92DF92EF92FF920F93B4
:100AE0001F93CF93DF93E82EF62EB42EC7E0D0E00D
:100AF000022F10E087E0C82ED12CBB2059F4B6019C
:100B00006C1B7D0BC80102C0959587956A95E2F72D
:100B1000BC0107C0B8010C2E02C0759567950A94F8
:100B2000E2F761708E2D0E9416058F2D61E00E9404
:100B300016058F2D60E00E94160521979FEFCF3F8D
:100B4000D907D9F6DF91CF911F910F91FF90EF90C8
:100B5000DF90CF90BF900895629FD001739FF00106
:100B6000829FE00DF11D649FE00DF11D929FF00D3D
:100B7000839FF00D749FF00D659FF00D9927729F74
:100B8000B00DE11DF91F639FB00DE11DF91FBD01FF
:100B9000CF0111240895AA1BBB1B51E107C0AA1F56
:100BA000BB1FA617B70710F0A61BB70B881F991F0E
:100BB0005A95A9F780959095BC01CD01089597FBB2
:100BC000092E07260AD077FD04D0E5DF06D00020E5
:100BD0001AF4709561957F4F0895F6F79095819579
:100BE0009F4F089597FB092E05260ED057FD04D080
:100BF00014D00AD0001C38F45095409530952195BA
:100C00003F4F4F4F5F4F0895F6F790958095709541
:100C100061957F4F8F4F9F4F0895A1E21A2EAA1B17
:100C2000BB1BFD010DC0AA1FBB1FEE1FFF1FA2179C
:100C3000B307E407F50720F0A21BB30BE40BF50B99
:100C4000661F771F881F991F1A9469F76095709522
:100C5000809590959B01AC01BD01CF010895EE0FE9
:100C6000FF1F0590F491E02D09942F923F924F922F
:100C70005F926F927F928F929F92AF92BF92CF922C
:100C8000DF92EF92FF920F931F93CF93DF93CDB735
:100C9000DEB7CA1BDB0B0FB6F894DEBF0FBECDBFAD
:100CA00009942A88398848885F846E847D848C847E
:100CB0009B84AA84B984C884DF80EE80FD800C8187
:100CC0001B81AA81B981CE0FD11D0FB6F894DEBF6A
:100CD0000FBECDBFED01089510E0C4ECD0E004C01C
:100CE000FE010E9431062296C63CD107C9F7F8944E
:020CF000FFCF34
:100CF2002000280100000100000000000000A00206
:020D0200AA0243
:00000001FF
