:100000000C9463000C948B000C948B000C948B006C
:100010000C948B000C948B000C948B000C948B0034
:100020000C948B000C948B000C948B000C948B0024
:100030000C948B000C948B000C948B000C948B0014
:100040000C9425020C948B000C948B000C948B0068
:100050000C948B000C948B000C948B000C948B00F4
:100060000C948B000C948B000000000024002700EF
:100070002A0000000000250028002B0000000000DE
:1000800023002600290004040404040404040202DA
:100090000202020203030303030301020408102007
:1000A0004080010204081020010204081020000012
:1000B0000007000201000003040600000000000029
:1000C00000000C02050211241FBECFEFD8E0DEBFF6
:1000D000CDBF11E0A0E0B1E0E2ECF5E002C0059098
:1000E0000D92AE30B107D9F711E0AEE0B1E001C03A
:1000F0001D92A432B107E1F710E0C4ECD0E004C0D7
:100100002297FE010E94D002C23CD107C9F70E948B
:1001100013020C94D4020C940000CF93DF93BC0123
:100120008230910510F462E070E0A0912201B0915C
:100130002301ED01E0E0F0E040E050E021C08881E3
:1001400099818617970769F48A819B81309719F006
:100150009383828304C09093230180932201FE0144
:1001600034C06817790738F44115510519F0841720
:10017000950708F4AC01FE018A819B819C01E9018D
:100180002097E9F641155105A9F1CA01861B970B85
:10019000049708F4BA01E0E0F0E02AC08D919C9148
:1001A000119784179507F9F46417750781F412966F
:1001B0008D919C911397309719F09383828304C09B
:1001C0009093230180932201FD0132964CC0CA0115
:1001D000861B970BFD01E80FF91F6193719302973E
:1001E0008D939C9340C0FD01828193819C01D90134
:1001F0001097A1F68091200190912101892B41F463
:10020000809102019091030190932101809320013C
:1002100040910401509105014115510541F44DB73C
:100220005EB78091000190910101481B590B20910C
:10023000200130912101CA01821B930B8617970779
:1002400080F0AB014E5F5F4F8417950750F0420F6F
:10025000531F5093210140932001F9016193719341
:1002600002C0E0E0F0E0CF01DF91CF910895CF939D
:10027000DF93009709F450C0EC0122971B821A8289
:10028000A0912201B0912301109709F140E050E0C4
:10029000AC17BD0708F1BB83AA83FE012191319100
:1002A000E20FF31FAE17BF0779F48D919C91119760
:1002B000280F391F2E5F3F4F3983288312968D9167
:1002C0009C9113979B838A834115510571F4D093B8
:1002D0002301C093220120C012968D919C91139707
:1002E000AD01009711F0DC01D3CFFA01D383C283B3
:1002F00021913191E20FF31FCE17DF0769F4888156
:100300009981280F391F2E5F3F4FFA0131832083D7
:100310008A819B8193838283DF91CF910895FC0131
:100320008AE091E091838083828193810E943701EA
:1003300008950F931F938C018AE091E0F801918357
:100340008083828193810E943701C8010E9422022A
:100350001F910F910895BF92CF92DF92EF92FF927B
:100360000F931F936C01162FF42EB22E8E2D2AE0C0
:1003700031E0F60131832083E48290E0880F991FF9
:100380000E948D00F601828393831583F682B782E3
:100390000087812F61E00E94A802F601868161E05A
:1003A0000E94A802F601878161E00E94A802F6017E
:1003B000808561E00E94A8021F910F91FF90EF904D
:1003C000DF90CF90BF90089508950895EF920F9316
:1003D0008130910571F46F5F7F4FA1F48EE091E061
:1003E0006BE04CE02DE00AE0EE24E3940E94AB01C8
:1003F00009C0892B39F46F5F7F4F21F48EE091E0C3
:100400000E948F010F91EF90089580E090E06FEFD0
:100410007FEF0E94E601089581E090E06FEF7FEFAB
:100420000E94E6010895CF93DF930E946D020E941F
:10043000E401C0E0D0E00E94E5012097E1F30E94D2
:100440000000F9CF0E94370108951F920F920FB656
:100450000F9211242F933F938F939F93AF93BF934A
:1004600080911B0190911C01A0911D01B0911E0172
:1004700030911F010196A11DB11D232F2D5F2D3736
:1004800020F02D570196A11DB11D20931F018093CF
:100490001B0190931C01A0931D01B0931E0180913C
:1004A000170190911801A0911901B0911A010196BC
:1004B000A11DB11D8093170190931801A0931901FC
:1004C000B0931A01BF91AF919F918F913F912F915E
:1004D0000F900FBE0F901F901895789484B582608E
:1004E00084BD84B5816084BD85B5826085BD85B5D8
:1004F000816085BDEEE6F0E0808181608083E1E887
:10050000F0E01082808182608083808181608083BE
:10051000E0E8F0E0808181608083E1EBF0E08081C1
:1005200084608083E0EBF0E0808181608083EAE793
:10053000F0E080818460808380818260808380811C
:10054000816080838081806880831092C1000895DB
:10055000482F50E0CA0186569F4FFC0124914A570C
:100560005F4FFA0184918823C1F0E82FF0E0EE0F8D
:10057000FF1FE859FF4FA591B491662341F49FB73F
:10058000F8948C91209582238C939FBF08959FB7F8
:10059000F8948C91822B8C939FBF0895EE0FFF1FD0
:1005A0000590F491E02D099410E0C4ECD0E004C073
:1005B000FE010E94D0022296C63CD107C9F7F894EA
:0205C000FFCF6B
:0E05C200200024010000000000008F019901BC
:00000001FF
